:060000000C9442000C9478
:1000060000000C9400000C946F000C9400000C94FB
:1000160000000C9400000C9400000C9400000C945A
:1000260000000C9400000C9400000C9400000C944A
:1000360000000C9400000C9400000C9400000C943A
:1000460000000C9400000C9400000C9400000000CA
:100056000000776F5F3F3132333435363738392A0F
:10006600302380C0040004005400040060025800DD
:100076000C0064025C000200700268000000F89444
:10008600EE27ECBBF1E0FBBFEBBFE5BF8DE0A2E0E6
:10009600BB27ED938A95E9F780E098E0A0E6ED931B
:1000A6000197E9F7EAE6F0E085919591009761F00E
:1000B600A591B59105901590BF01F00105900D929F
:1000C6000197E1F7FB01F0CFEFE5EDBFE8E0EEBF0A
:1000D600C0E6D2E00C94C9000A921A92FA926A9388
:1000E6007A938A939A93AA93BA93EA93FA93EFB779
:1000F600EA93A4E1B0E00E94A301809903C04424DE
:1001060055240AC0819903C0E1E0F0E004C0829959
:1001160003C0E2E0F0E02F01939903C06624772440
:100126000FC0949903C0E1E0F0E009C0959903C0BF
:10013600E2E0F0E004C0969903C0E3E0F0E03F019E
:10014600E3E0F0E0E615F70529F4E2E0F0E0E41577
:10015600F50509F002C09DD00BC0F301A3E0B0E0A5
:100166000E94B101EC59FD4FE40DF51DA0819DD013
:10017600E991EFBFF991E991B991A9919991899185
:1001860079916991F99019900990189500E010E01D
:10019600E0E0EABBEBBBE7BBE8BBE4BBE5BBE1BB2E
:1001A600E2BBE3BFE2BFECBFEFBDEEBDEDBDECBD14
:1001B600E7BDE6BDEBBDEABDE9BDE8BDE2BDE5BD17
:1001C600E4BDE3BDE9BFEBB7E062EBBFE0E0E5BF4E
:1001D600E0E4E4BFE0E2EABFE0E0EAB9E0E8E8B97B
:1001E600E0E0E0BFE6B9EDB9E6BFA0E172D0E8E72E
:1001F600E1BBEFEFE2BB4DD07894F8010F5F1F4FE4
:10020600A3E0B0E00E94B901E05AFD4FE081E2BBF5
:100216008CD0F3CFFFCFAA93E881E07111F0DB9A7F
:1002260001C0DB98E881E07211F0DC9A01C0DC982D
:10023600E881E07411F0DD9A01C0DD98E881E0788C
:1002460011F0DE9A01C0DE988DE08A95F1F7DA9A10
:100256008DE08A95F1F7DA988DE08A95F1F763C01B
:10026600AA93A881D8DFE881E295E883A881D3DF45
:1002760085E88A95F1F757C0AA93E881F0E0E0593E
:10028600FD4FE081A981AE0FEBDF99808880229631
:100296000895A2E0E5DF49D0ACE0E2DFA1E0E0DFCF
:1002A60044D0E0E08E2E9E2E0895AA93A881AA300F
:1002B60011F09B1440F0E0E0EA938394A82DDCDF74
:1002C600A881AA3081F19394D89AA881C9DFD898D9
:1002D6002AC0AA93D39AD49AD59AD69AD29AD09A61
:1002E600D19ADA98D898D998B880E881E058E093FE
:1002F6007202E881E054E0937302A4E1B0E00E9448
:10030600A30117D016D015D0A0E285DF88EC90E0C7
:100316000197F1F7A8E2A4DFA4E0A2DFA5E8A0DF39
:10032600A6E09EDFB6DF21960895A3E0B0E00C9428
:10033600A301A0E370DF88EC90E00197F1F7089540
:10034600109639F080ED97E00197F1F7A89511978F
:10035600C9F70895F195E195F0400895FA9FF02DBB
:10036600EB9FF00DEA9FE02DF10D0895E894F7FF5D
:1003760002C0F0DF6894EA23FB230EF4EBDF089556
:00000001FF
