:100000000C9438000C9400000C9400000C946500D3
:100010000C9400000C9400000C9400000C94000060
:100020000C9400000C9400000C9400000C94000050
:100030000C9400000C9400000C9400000C94000040
:100040000C9400000C9400000C9400000C94000030
:100050000C9400001027E80364000A00010000105F
:1000600000011000010080C0020060026600000074
:10007000F894EE27ECBBF1E0FBBFEBBFE5BF8DE0F2
:10008000A2E0BB27ED938A95E9F780E098E0A0E62F
:10009000ED930197E9F7E8E6F0E0859195910097F7
:1000A00061F0A591B59105901590BF01F001059003
:1000B0000D920197E1F7FB01F0CFEFE5EDBFE8E02E
:1000C000EEBFC0E6D2E00C94C8000A921A92FA92EF
:1000D0006A937A938A939A93AA93BA93EA93FA9338
:1000E000EFB7EA93EFE7E2BB93980E948C01809907
:1000F00002C0A1E307C0819902C0A2E303C08299B4
:1001000003C0A3E30E944901939A94980E948C0132
:10011000809902C0A4E307C0819902C0A5E303C08F
:10012000829903C0A6E30E944901949A95980E947F
:100130008C01809902C0A7E307C0819902C0A8E39F
:1001400003C0829903C0A9E30E944901959A969839
:100150000E948C01809902C0AAE207C0819902C066
:10016000A0E303C0829903C0A3E20E944901969ACA
:10017000E7E0E2BBE991EFBFF991E991B991A9916B
:100180009991899179916991F990199009901895AF
:10019000E0E0EABBEBBBE7BBE8BBE4BBE5BBE3BF2E
:1001A000E2BFECBFEFBDEEBDEDBDECBDE7BDE6BD12
:1001B000EBBDEABDE9BDE8BDE2BDE5BDE4BDE3BD23
:1001C000E9BFEBB7E062EBBFE0E0E5BFE0E4E4BF2E
:1001D000E0E2EABFE0E0EAB9E0E8E8B9E0E0E0BF89
:1001E000E6B9EDB9E6BFA0E10E945D01E8E7E1BB39
:1001F000E7E0E2BB0E943D017894FFCFFFCFAA93D6
:10020000E881E07111F0DB9A01C0DB98E881E072CF
:1002100011F0DC9A01C0DC98E881E07411F0DD9AFD
:1002200001C0DD98E881E07811F0DE9A01C0DE9827
:100230008DE08A95F1F7DA9A8DE08A95F1F7DA98F0
:100240008DE08A95F1F766C0AA93A881D8DFE8818E
:10025000E295E883A881D3DF85E88A95F1F75AC053
:10026000AA93E881F0E0E05AFD4FE081A981AE0F4A
:10027000EBDF5980488022960895A2E00E94900109
:10028000ACE0E2DFA1E00E949001E0E04E2E5E2EA5
:100290000895AA93A881AA3011F0571440F0E0E025
:1002A000EA934394A42DDCDFA881AA3099F15394FA
:1002B000D89AA881C9DFD8982DC0AA93D39AD49A86
:1002C000D59AD69AD29AD09AD19ADA98D898D998BB
:1002D0007880E881E058E0936202E881E054E0939E
:1002E0006302A4E1B0E00E949E010E9496010E9478
:1002F00096010E949601A0E282DF88EC90E00197CF
:10030000F1F7A8E2A1DFA4E09FDFA5E89DDFA6E06A
:100310009BDFB3DF21960895A2E0B0E00C949E012C
:100320000E942401A3E0B0E00C949E01A0E30E948F
:10033000FF0088EC90E00197F1F70895109639F0EE
:1003400080ED97E00197F1F7A8951197C9F7089507
:00000001FF
